:020000040800F2
:1000000018800020850200084D3F0008B13A000822
:10001000493F000841230008C18B00080000000090
:1000200000000000000000000000000081650008E2
:100030001F2900080000000015030008D572000801
:100040009F0200089F0200089F0200089F0200080C
:100050009F0200089F0200089F0200089F020008FC
:100060009F0200089F0200089F0200089F020008EC
:100070009F0200089F0200089F0200089F020008DC
:100080009F0200089F0200089F0200089F020008CC
:100090009F0200089F0200089F0200089F020008BC
:1000A0009F0200089F0200089F0200089F020008AC
:1000B0009F0200089F0200089F0200089F0200089C
:1000C0009F0200089F0200089F0200089F0200088C
:1000D0009F020008B981000839840008AD86000835
:1000E000992D00089F0200089F0200089F02000847
:1000F0009F0200089F0200089F0200089F0200085C
:100100009F0200089F0200089F0200089F0200084B
:100110009F0200089F0200089F0200089F0200083B
:100120009F0200089F0200089F0200089F0200082B
:100130009F0200089F0200089F0200089F0200081B
:100140009F0200089F0200089F0200089F0200080B
:100150009F0200089F0200089F0200089F020008FB
:100160009F0200089F0200089F0200089F020008EB
:100170009F0200089F0200089F0200089F020008DB
:100180009F0200089F02000800F002F800F06AF8E1
:100190000AA090E8000C82448344AAF10107DA45E2
:1001A00001D100F05FF8AFF2090EBAE80F0013F0CA
:1001B000010F18BFFB1A43F0010318478CC200005F
:1001C000ACC200000A444FF0000C10F8013B13F0E1
:1001D000070408BF10F8014B1D1108BF10F8015BA0
:1001E000641E05D010F8016B641E01F8016BF9D193
:1001F00013F0080F1EBF10F8014BAD1C0C1B09D1EA
:100200006D1E58BF01F801CBFAD505E014F8016B5B
:1002100001F8016B6D1EF9D59142D6D370470000ED
:100220000023002400250026103A28BF78C1FBD8FF
:10023000520728BF30C148BF0B6070471FB50BF095
:10024000F9FD00F027FB0400002000210BF0E8F886
:10025000401C6060002000210BF0CCF8E0601FBD66
:1002600010B510BD00F0F0FA1146FFF7E7FF09F0F6
:10027000A7FE00F09DFD03B4FFF7F2FF03BC01F001
:100280007DF800000948804709480047FEE7FEE77F
:10029000FEE7FEE7FEE7FEE7FEE7FEE7FEE7FEE736
:1002A00004480549054A064B7047000001740008E0
:1002B00089010008187A002018800020187C00208E
:1002C000187C0020EFF3108072B6704780F310881E
:1002D0007047264C4FF6FF7525604FF0000484F3FD
:1002E0000988234C4FF001052570224C4FF08055B2
:1002F000256062B6FEE730B41E4C4FF08055256095
:1003000030BC704730B41B4C4FF08055256030BC7A
:10031000704700BF72B6EFF3098050B11EF0100FA6
:1003200008BF20ED108A203880E8F00F12490968D4
:10033000086000B5114880475DF804EB104811498A
:100340000A7802700C4810490A680260106890E848
:10035000F00F20301EF0100F08BFB0EC108A80F3B1
:1003600009884EF0040E62B6704700BF22ED00E02F
:100370004601002004ED00E04C010020414E000841
:100380003B0100203C0100205401002070B50646CE
:1003900000F0E2F80468054630460A22002100F029
:1003A0003DF92C6070BD40EA010310B59B070FD1E9
:1003B000042A0DD310C808C9121F9C42F8D020BAD5
:1003C00019BA884201D9012010BD4FF0FF3010BD8D
:1003D0001AB1D30703D0521C07E0002010BD10F85B
:1003E000013B11F8014B1B1B07D110F8013B11F821
:1003F000014B1B1B01D1921EF1D1184610BD40EAE2
:100400000103024630B59B0710D14FF0013400E0E4
:1004100008C208C91D1B9D4315EAC41FF8D013F07C
:10042000FF0102F8011B0DD01B0AF8E711F8013B90
:10043000002B02F8013B05D011F8013B002B02F81C
:10044000013BF3D130BD10B5431C02E010F8011B95
:1004500071B18107FAD14FF0013202C88C1A8C4376
:1004600014EAC211F9D0C01A0A0603D0C01E10BD8A
:10047000C01A10BD0A0401D0801E10BD0902FCD0B4
:10048000401E10BD032A40F2308010F0030C00F033
:10049000158011F8013BBCF1020F624498BF11F8BE
:1004A00001CB00F8013B38BF11F8013BA2F1040277
:1004B00098BF00F801CB38BF00F8013B11F00303EF
:1004C00000F0E480083AC0F0088051F8043B083A94
:1004D00051F804CBA0E80810F5E7121D5CBF51F8F5
:1004E000043B40F8043BAFF30080D20724BF11F86F
:1004F000013B11F801CB48BF11F8012B24BF00F8D4
:10050000013B00F801CB48BF00F8012B70474FF0CA
:1005100000020429C0F0128010F0030C00F0EA8001
:10052000CCF1040CBCF1020F18BF00F8012BA8BFDE
:1005300020F8022BA1EB0C0100F0DCB85FEAC17CD3
:1005400024BF00F8012B00F8012B48BF00F8012B55
:10055000704770477047704700487047B479002073
:1005600010B5FFF7F9FF006810BD10B50446FFF79E
:10057000F3FF046010BD00000FB4002300B589B084
:100580000CA900910B99CB60214B7B440693214B26
:100590007B44079304236FF00042CDE901321E4AE9
:1005A0007A446B460892024600200BF0B0FC09B07A
:1005B0005DF814FB70B506464FF0FF3015460C464B
:1005C000324686B00091CDE90101694600200490D1
:1005D00004A8FFF7D1FF02460498211825B108B1FD
:1005E000084600E020462860049800280DD0002A24
:1005F00002DD0098884208D03246081B6946009404
:10060000CDE9010404A8FFF7B7FF06B070BD0000F4
:10061000DD010000F5010000B50100002DE9F04703
:1006200091460F4680460446002614F8015B2DB122
:1006300000F08AF80068405DC007F6D12B2D02D08B
:100640002D2D18D0641E4A463946204600F0ADF8DC
:1006500027B13968A14201D1C7F800804FF00204E8
:1006600071050BD54042002803DDFFF775FF0460DC
:10067000A007BDE8F08746F48066E4E70028F8DAD2
:10068000FFF76AFF04606FF00040F2E710B5203A10
:10069000C0F00B80B1E81850203AA0E81850B1E83B
:1006A0001850A0E81850BFF4F5AF5FEA027C24BFF1
:1006B000B1E81850A0E8185044BF18C918C0BDE8E8
:1006C00010405FEA827C24BF51F8043B40F8043BB1
:1006D00008BF7047D20728BF31F8023B48BF11F866
:1006E000012B28BF20F8023B48BF00F8012B7047C0
:1006F0004FF0000200B5134694469646203922BFBB
:10070000A0E80C50A0E80C50B1F12001BFF4F7AF05
:10071000090728BFA0E80C5048BF0CC05DF804EBE7
:10072000890028BF40F8042B08BF704748BF20F855
:10073000022B11F0804F18BF00F8012B704700000A
:1007400000487047B479002010B500F0A3F8001DF0
:1007500010BD00BFCDAC000010B50446FFF7F4FF9C
:100760000068005D00F0010010BD426842B1016800
:1007700011F8013B23B1521EC0E900121846704720
:100780000121C160881E704742685AB1C368016880
:1007900043B983688B4205D0491E521CC0E9001240
:1007A000002070474FF0FF3070472DE9F05F824620
:1007B00015468B4600270AF10104B9460078302817
:1007C00001D09DB113E014F8010B0127782803D064
:1007D000582801D045B10AE00DB1102D07D10027EE
:1007E00014F8010B102502E0082500E00A25002678
:1007F000B0460EE005FB080005FB06F101271FFAD5
:1008000080F801EB1046B6F5803F00D3B94614F8E6
:10081000010B294600F042F80028EBDABBF1000F8B
:1008200005D00FB1641E00E05446CBF80040B9F18A
:10083000000F06D0FFF790FE02210160C81EBDE840
:10084000F09F48EA0640FAE77546FFF779FFAE46A3
:1008500005006946534620F00700854618B020B5CC
:10086000FFF71EFDBDE820404FF000064FF00007E7
:100870004FF000084FF0000B21F00701AC46ACE848
:10088000C009ACE8C009ACE8C009ACE8C0098D46B5
:100890007047000000487047D47900203A2800D201
:1008A000303820F02002412A01D3A2F137008842DB
:1008B00001D34FF0FF3070472DE9FF4F06468BB054
:1008C0000878FF2806D0491C2D2805D000244FF0B9
:1008D000000908E000200CE00124F8E709EB890397
:1008E000491C00EB43090878FF28F7D114B1C9F17E
:1008F00000008146107800252C46AA4629462D285E
:1009000001D02B2804D1521C2D2813D00020824660
:100910008B461078FF280FD04FF0000C0A21521C94
:10092000A5FB017804FB018105FB0C11C5194BEBFC
:100930000104EEE70120EAE7002108464FF000003D
:10094000BAF1000F02D000EB80004008C0F38157DD
:10095000012F01DD4FF0FF370E9955EA040009EB36
:1009600001080BD04FF0020918F5FA7F16DA4FEAAA
:10097000CA70002F706008DD012007E04FEACA70DE
:10098000C6E900B00FB0BDE8F08F00203060FFF77F
:10099000E3FDC0F800901821084616E0B8F5FA7F8C
:1009A00018DD002F02DAF748784401E0F648784471
:1009B000D0E90010C6E9001040EACA707060FFF785
:1009C000CBFDC0F80090142108460FB0BDE8F04FF1
:1009D0000BF03ABA002108464FF00000B8F10001D0
:1009E000099002DAC7F1000200E03A4601DAC8F1E4
:1009F000000106A800F026FA06AB93E8070003AB57
:100A000083E8070044F23E005BEA04010090584688
:100A100004D144F21E012C465D460091210C0904CC
:100A2000014306D10099240444EA15442D041039E9
:100A3000009104F07F41014306D10099240244EA69
:100A400015642D020839009104F07041014306D16C
:100A50000099240144EA15742D01091F009104F046
:100A60004041014306D10099A40044EA9574AD00C9
:100A7000891E009104F00041084304D100986D19CB
:100A80006441401E00904FF001033A466846B8F1B9
:100A9000000FCDE9014503A902DD00F014FF01E0DC
:100AA00000F0E7FEBAF1000F04460D4601D084F0D5
:100AB0000044002108464FF00000099940F2FF77FA
:100AC000484010F00C0F07D124F00040284303D019
:100AD000C4F30A50B84212D1FFF73EFDC0F80090AF
:100AE000C4F30A50B8420AD1A8487844D0E90010AB
:100AF000C6E9001004F000410843706042E7C6E90F
:100B000000543FE72DE9FF4F1F464FF0000A4FF01A
:100B1000FF38454691B0D7E90146CDF83CA0FFF734
:100B2000B9FEC0680168405C1090B96912986D1CEC
:100B30008847396A814688470028F6D1B9F1FF3FD6
:100B40000AD0002E24F4D06411DDB9F12B0F08D0A7
:100B5000B9F12D0F0BD102E0404615B013E744F474
:100B60008064B96912986D1C8847761E81466005BD
:100B700004A901D52D2000E02B20002E01F1010B4E
:100B80000DF130088DF810003FDDB9F1690F08D084
:100B9000B9F1490F05D0B9F16E0F02D0B9F14E0F7E
:100BA0001CD13B4601A8009580E85002DDE91212F5
:100BB0006FF002000BF0AFF9C11CCED10EE0B969A5
:100BC00012986D1C884781461398761E44F4007471
:100BD00005600F98401C002E0F9016DDB9F1300F04
:100BE000EDD0B9F1780F02D0B9F1580F0DD10F98AF
:100BF00001280AD13B46CDE90054DDE91212001F5D
:100C000002960BF086F9C11CA7D1109989453ED1F7
:100C100044F0800406E01399681CAAF1010A44F428
:100C200000740860B9696D1C1298761E88473028D8
:100C30008146F0D02BE01099894505D1200603D4D8
:100C4000761E44F0800418E0484608F008FB08B31C
:100C5000761E0DF123018B4544F4007408D2A9F1EE
:100C600030000BF8010B200607D5AAF1010003E0C4
:100C7000200602D40AF101008246A00502D513998C
:100C8000681C0860B96912986D1C88478146002E5F
:100C9000D1DC53E0002E51DDB9F1650F02D0B9F17E
:100CA000450F4BD1A00549D5B9696D1C1298761E28
:100CB00024F440748847002E81460CDD2B2804D094
:100CC000B9F12D0F07D144F48074B96912986D1CE5
:100CD0008847761E8146E00501D52D2100E02B21B5
:100CE00008F8011BCDF8008021E0761E0DF13901D6
:100CF000884544F400740CD2A9F1300010F0FF00D4
:100D000088F8000002D10099884509D908F1010846
:100D100006E0E00501D51E4801E042F20F70824670
:100D2000B96912986D1C8847814613980560002E9A
:100D300004DD484608F093FA0028D6D1F9691298E4
:100D40008847FF2053468BF8000088F800000020F9
:100D50000A900B9004AA0CA90AA8FFF7ADFDA00504
:100D600002D46FF00100F8E614F0240F12D0E0076F
:100D70001CD13868DDE90A12031D3B600068C0E938
:100D8000001213E0C4BA0000B6BA00007AB900003D
:100D9000F1D8FFFF0AA9684608F04EFAE00705D12E
:100DA0003868009A011D3960006802602846D4E660
:100DB00010B50446AFF300802046BDE81040FFF7B1
:100DC0005ABA00004FF0013C50F8042B51F8043B94
:100DD0009A4221D1A2EB0C03934313EACC1317D10F
:100DE00050F8042B51F8043B9A4215D1A2EB0C03A6
:100DF000934313EACC130BD150F8042B51F8043B66
:100E00009A4209D1A2EB0C03934313EACC13DBD033
:100E10004FF00000704700BFD01A01BAB1FA81F15B
:100E200001F0180122FA01F0CB40C1F12001DBB240
:100E3000C0B2C01A2CFA01F3D11A914311EAC311BE
:100E4000E6D170472DE9F047814616468AB035480D
:100E500078440DC88DE80D0032487844801C03ACFE
:100E60000DC884E80D0041F69B300844372190FB03
:100E7000F1F290FBF1F5A5F1800501FB12041B3C9A
:100E800002D56442012000E00020DFF898A08046EF
:100E90000027FA44AAF1BE0A0EE0E0070AD0324663
:100EA000684607EB470101230AEB810100F0F6FCDD
:100EB0008DE8070064107F1C002CEED1194F7F4491
:100EC000AE3F19E0E80715D007EB04100DF1180A42
:100ED00090E80E008AE80E00C068F04201D198192F
:100EE00008903246012306A903A800F0D7FC03AB03
:100EF00083E807006D10641C002DE3D14FF001035F
:100F000032466946B8F1000F03A802D000F09CFCFD
:100F100001E000F0C3FCC9E90001C9F808200AB0EB
:100F2000BDE8F087BCB400002DE9FF4F1F464FF02D
:100F30003C0987B04FF00042DDE9141001F10108CF
:100F4000DDF858A002EA4050039000200590834647
:100F5000054604460490B969461E08988847AAF1D8
:100F6000010A0290BAF1000F3BDD02982E2815D03D
:100F70001021FFF793FC00282EDB4FF0010B0599A1
:100F8000014317D0B9F1000F0BDB4A46C11700F03F
:100F9000FBF905430C43A9F1040905E00120049085
:100FA0000BE008B145F0010501200590049820B937
:100FB000361D02E0049800B1361FB969089808F19F
:100FC00001088847BBF1000FAAF1010A0290C9D0BD
:100FD0000999C1F80080C5E70298702808D0502808
:100FE00006D0F96908988847BBF1000F14D04FE08C
:100FF000002002900120BBF1000F049009D0B969D4
:10100000089808F101088847AAF10109B9F1000F11
:1010100007DCF969089888476FF001000BB0BDE85C
:10102000F08F2B2804D02D280CD14FF0FF300490E6
:10103000B969089808F101088847A9F10109B9F1CF
:10104000000FE6DD411CE4D00A21FFF727FC002851
:10105000DFDB029908F1010801EB810100EB41009F
:101060000290B969089888470A21FFF717FC099A86
:10107000A9F10109B9F1000FC2F8008001DD0028D3
:10108000E7DAF969089888470499029800FB016635
:1010900055EA040004D004F04041090002D006E003
:1010A000039898E0A40044EA9574AD00B61E04F0DD
:1010B0000041080002D16D196441761E159810F0A8
:1010C000240F03D04FF00B095C4803E04FF02809D0
:1010D0006FF07D008246564507DAAAEB0601894487
:1010E000B9F1410F01DD4FF0410901200021A9F1C3
:1010F000010200F049F9024628400B46214008430E
:1011000001D0012100E00021501E029143F1FF3186
:1011100028402140084301D0012000E0002002992E
:10112000834651EA0B014FD0002108464FF00000E2
:10113000039900F4400039B100EB80004FF4400106
:1011400000EBD07001EA60008015012802DD4FF04D
:10115000FF3000E013D0401C36D0029860B3BBF1E2
:10116000000F0CD14A460120002100F00DF9284063
:101170002140084301D0012000E00020E0B101201F
:101180004A46002100F000F9034640190A46614131
:101190002D1A8C4111D3B9F1400F09DD159810F0CB
:1011A000240F02D0AAF1340603E0AAF1170600E0EA
:1011B000761C00254FF0004406E05B1E42F1FF3232
:1011C00020EA030521EA0204CAF10100B04206DA6E
:1011D0001B49039808430190002000900EE0039AF9
:1011E000C4F3D321E80A0A43164940EA44500A43AB
:1011F0003146CDE90002684608F027F8159810F04E
:10120000240F0BD01598C00715D13868DDE90012FE
:10121000031D3B600068C0E900120CE002A86946AB
:1012200008F00AF81598C00705D13868029A011D20
:101230003960006802604046F0E6000002FCFFFFF3
:101240000000F07F0000F03F2DE9FF4F92461D4661
:1012500085B04FF00041DDE9124BDDE914727F1ECD
:1012600001EA4B50414940F0FF4940EA01080021A2
:1012700022F020004928049102D04E2828D04CE0CA
:101280003BA0012607C88DE80700A9690698641CE1
:1012900088477F1E014606D41DF8060018B121F0CC
:1012A000200181420BD0E96906988847032E34D08B
:1012B000082E32D06FF0010009B0BDE8F08F761C27
:1012C000032E01D0082EE0D1601CCAF80000DCE734
:1012D000A9690698641C88477F1E2AD420F0200044
:1012E000412826D1A9690698641C88477F1E20D40E
:1012F00020F020004E281CD1A9690698641C88475C
:101300007F1E48F4002849F48009CAF8004001D43F
:10131000282806D0E969069888475FEACB7012D082
:1013200022E0A9690698641C88477F1E01D4002822
:1013300003DAE96906988847BCE72928F1D1641CDB
:10134000CAF80040E9E71BF0240F07D02868049989
:10135000031D2B600068C0E9001805E02868021D25
:101360002A600068C0F800902046A5E70000F07FE2
:10137000494E46494E495459000000000149182081
:10138000ABBEFEE726000200B2F120030AD5C2F18F
:10139000200301FA02F120FA03F300FA02F041EA15
:1013A0000301704700FA03F14FF0000070477047E7
:1013B00020F07F4C80EA030023F07F47ACEB07036B
:1013C00003F57C5300F0004003F1FF032DE9804951
:1013D0004FEA154B09B44FEA144325EA0B4E24EAB1
:1013E00003480FF2042606EB132749083E785FEA0C
:1013F000320203FB0667C7F5000707FB06F64FEA54
:1014000054374FEAD64606F1020607FB066CCCF1CC
:10141000005C4FEA1C472CEA074C07FB06F40CFB68
:1014200006F504EB15464FEA961634BF00204FF040
:1014300000404FEAD13706FB07FC4FEA1C4C0CFB7F
:101440000BF7D21B03FB0CF761EB07010CFB0EF74C
:10145000B0EB074072EB17420CFB08F734BFA2EB6E
:101460000742B2EB074261EB17414FEA0C444FEAE7
:10147000910706FB07FC4FEA1C4C0CFB0BF7B0EB8B
:10148000C74072EB573203FB0CF734BFA2EBC742E5
:10149000B2EBC74261EB57310CFB0EF7B0EBC70064
:1014A00072EB57720CFB08F734BFA2EBC702B2EB2A
:1014B000C70261EB5771039F4FEA816141EA9211C4
:1014C00004EBCC044FEAD1374FEA826206FB07FCFB
:1014D00042EA90124FEA80604FEA1C4C0CFB0BF77B
:1014E000D21B03FB0CF761EB07010CFB0EF7B0EB13
:1014F000074072EB17420CFB08F734BFA2EB074220
:10150000B2EB074261EB17414FEA8C554FEA910766
:1015100004EB9C2406FB07FC4FEA1C4C0CFB0BF76E
:10152000B0EBC74072EB573203FB0CF734BFA2EBB2
:10153000C742B2EBC74261EB57310CFB0EF7B0EB81
:10154000C70072EB57720CFB08F734BFA2EBC7025F
:10155000B2EBC70261EB577115EB4C254FEA816185
:1015600041EA92114FEA82624FEAD13742EA901281
:1015700006FB07FC44F100044FEA80604FEA1C4C74
:101580000CFB0BF7D21B03FB0CF761EB07010CFB09
:101590000EF7B0EB074072EB17420CFB08F734BFB5
:1015A000A2EB0742B2EB074261EB174115EB1C15AA
:1015B0004FEA813141EA92414FEA823242EA904257
:1015C0004FEA80304FEA0C7644F1000448EA0343C6
:1015D0004EEA0B484FF0000EB2EB080C71EB03071C
:1015E00024BF624639464EEB0E0E4FF0000B00183A
:1015F000524149414BEB0B0BB2EB080C71EB03076B
:101600007BF1000B24BF624639464EEB0E0E4FF0C5
:10161000000B0018524149414BEB0B0BB2EB080C8D
:1016200071EB03077BF1000B24BF624639464EEB9A
:101630000E0E51EA020718BF46F0010616EB0E76B1
:1016400055F1000254F1000103D5BDE88901BDE860
:101650000088BDE88901BDE80048B619524141EB58
:101660000101A3F10103704780807F7E7D7C7B7A3E
:101670007978777676757473727171706F6E6E6D3E
:101680006C6C6B6A6A6968686766666564646363E4
:1016900062616160605F5F5E5E5D5D5C5C5B5B5A6A
:1016A0005A595958585757565655555554545353D7
:1016B00052525251515050504F4F4F4E4E4D4D4D32
:1016C0004C4C4C4B4B4B4A4A4A494949484848477D
:1016D00047474746464645454544444444434343BB
:1016E000434242424241414146EA0646A3F5705315
:1016F0004FEA164646EA42564FEAD22242EA4152A1
:1017000010B54FEAD121A3F1010300F02FF820F02A
:10171000004000F1020C00F0004701EB00501146C0
:10172000BCF5006F40EA070000D210BDBAF1000F0F
:101730000AD01CB503B44FF004004FF004014FF081
:1017400000000FBCBDE810404FF00001BBF1010FDD
:10175000B9BF04484FF0FF310348002140EA0700B9
:1017600010BD00BFFFFFEF7F0000F07F002B9C4605
:1017700030D477002BD01CB54FEA370703B44FF0B5
:1017800010004FF01001BAF1000F06D0BCF1000FAD
:10179000DCBF40F0080040F008014FF000000FBC33
:1017A000BDE810400BF1010BBBF1010F08BF5FEA70
:1017B000170722BF12F1010211F101014FF00041A0
:1017C00043F1000300F0004043EA00007047F9D302
:1017D0005708D0E746EA064613F1400F4FEA16468F
:1017E0001FDD13F1200FDFBF16430A46002120330F
:1017F0005B42BED0C3F1200746EA064602FA07F76D
:101800004FEA164646EA0706C3F1200722FA03F21A
:1018100001FA07F721FA03F14FF0000342EA070249
:10182000A7E746EA020646EA06464FEA164646EAB1
:101830000106BCBF46EA0646360C4FF000034FF0E7
:1018400000024FF0000194E72DE9804C9A46934640
:1018500070B491E8380007C831EA400C48BF34EA58
:10186000430C03D5FFF7A4FDFFF780FFF0BCBDE8F4
:10187000008C2DE9804C9A46934670B491E838006C
:1018800007C831EA400C48BF34EA430C03D5FFF7E0
:101890008FFDFFF729FFF0BCBDE8008C2DE9804CDF
:1018A0009A46934670B491E8380007C810F0804F0C
:1018B00008BF13F0804F03D100F01AF8FFF756FF6E
:1018C000F0BCBDE8008C2DE9804C9A46934670B47C
:1018D00091E8380007C810F0804F08BF13F0804F20
:1018E00003D100F005F8FFF7FFFEF0BCBDE8008C67
:1018F00020F07F4780EA030023F07F4C07EB0C03C6
:10190000A3F57C5300F00040A3F1FE0392F0000F1A
:1019100000F0B38095F0000F00F077802DE90149C9
:101920004FEA11404FEA144621EA004800FB06FC4A
:1019300024EA064708FB06F607FB08F800FB07F752
:1019400018EB06484CEB164C4FEA124B18EB0748C5
:101950004FEA15464CEB174022EA0B4E0BFB06FCF8
:1019600025EA06470EFB06F607FB0EFE0BFB07F704
:101970001EEB064E4CEB164C4FF000061EEB074ECE
:101980004CEB174B18EB0B0840F1000018EB0E0B5B
:1019900058EB000840F100008F1A4FF000013CBFE7
:1019A000C943661B14BFB5EB040C00213CBFC943FF
:1019B000F61B4FEA17444EEA8E0E27EA04454FEA1B
:1019C0001C4704FB07622CEA074C05FB07F70CFBDE
:1019D00005F604FB0CFC16EB074642EB174216EB30
:1019E0000C4642EB1C421BEB060658EB020241413F
:1019F00046EA9E0601D5BDE80189B619524141EB80
:101A00000101A3F10103BDE801894FEA14454FEA42
:101A1000114724EA054621EA074C05FB07F406FBBB
:101A200007F70CFB06F105FB0CFC11EB074144EB3F
:101A300017444FEA124711EB0C4144EB1C4422EAD5
:101A4000074C05FB07F206FB07F70CFB06F605FB48
:101A50000CFC16EB074642EB174216EB0C4642EB2A
:101A60001C456A1854F1000148BF7047B61952412D
:101A700041EB0101A3F10103704795F0000F37D04E
:101A80004FEA11424FEA144721EA024624EA074C82
:101A900002FB07F106FB07F70CFB06F402FB0CFC4C
:101AA00014EB074441EB17414FEA154714EB0C4484
:101AB00041EB1C4125EA074C02FB07F506FB07F743
:101AC0000CFB06F602FB0CFC16EB074645EB174534
:101AD00016EB0C4645EB1C42121951F1000148BFB0
:101AE0007047B619524141EB0101A3F10103704760
:101AF0004FEA14454FEA114724EA054621EA074C0C
:101B000005FB07F106FB07F70CFB06F24FF000069A
:101B100005FB0CFC12EB074241EB174112EB0C42A8
:101B200051EB1C4148BF7047921841EB0101A3F1F2
:101B30000103704710B586B000208DF81400012312
:101B400005AA0021364807F0C3F903208DF80C00E0
:101B500000208DF80D0004208DF80E00032303AA49
:101B600000212F4807F0B4F904466CB12DA10120E3
:101B700008F0FAF800231A462146012007F0F4FF86
:101B80002DA1012008F0F0F8022003F05BF90823F2
:101B90006A460021224807F0A9F8044674B121A141
:101BA000012008F0E1F800231A462146012007F041
:101BB000DBFF21A1012008F0D7F82EE09DF80000FE
:101BC000032826D19DF80100042822D19DF80300A6
:101BD0009DF8021040EA012000B2184908809DF8E3
:101BE00005009DF8041040EA012000B21449088065
:101BF0000846B0F90000002804DB0846B0F90000F0
:101C000008800AE00E480088404200B20C49088073
:101C100003E00CA1012008F0A7F806B010BD0000F9
:101C200000540040493243D0B4CAFDBEDDB4EDCE0D
:101C3000F33A2020000000000D0A0000E20000201E
:101C4000E00000204949432069732045727220005A
:101C500010B50120084908700848C1F801000220A9
:101C6000487100208871B820A1F807000020487250
:101C7000084606F0A7FF10BD80490020A08601009D
:101C80000148B0F900007047E20000200148B0F9B7
:101C900000007047E000002000B587B09DF81800F4
:101CA000069002F08BFD032000216422354BCDE924
:101CB0000132CDE9031006200346334A0090334831
:101CC00002F0A4FD069006AA31A1062002F0B8FE9B
:101CD000032000216422314BCDE90132CDE903100C
:101CE000042003462E4A00902E4802F08FFD0690F5
:101CF00006AA2DA1042002F0A3FE4FF4FA7003F00F
:101D0000A1F803200021C8222B4BCDE90132CDE9F7
:101D1000031005200346294A0090294802F076FD69
:101D2000069006AA27A1052002F08AFE03200021C2
:101D3000C822284BCDE90132CDE903100720034624
:101D4000254A0090254802F061FD069006AA24A1CC
:101D5000072002F075FE032000216422234BCDE909
:101D60000132CDE9031009200346214A00902148A1
:101D700002F04CFD069006AA1FA1092002F060FEA9
:101D800007B000BD14300020A0310020317C0008D5
:101D90005461736B5F54696D65720000842E00207E
:101DA00010300020317D00085461736B5F5765610E
:101DB0007468657200000000C4340020E037002021
:101DC000217B00085461736B5F52656D6F74655FB2
:101DD00052656300A4310020C0340020E57A000879
:101DE0005461736B5F4C6F63616C0000E4370020DB
:101DF00070390020B97B00085461736B5F53656EC6
:101E0000736F725F446174615F436F6C6C65637480
:101E10000000000008B500F081FA03F0DDFA4FF091
:101E2000FF300021002807DA0A07150E834A00F068
:101E30000F031B1FD55403E00A07130E804A1354E7
:101E400000BF62B602F0BAFC07F04AFC08F0F2FBF1
:101E5000FFF7FEFE00F062FA01F06EFB06F034F9C7
:101E600006F06CFA06F0AAFB06F04EF806F0B2F89F
:101E700000F054FA042005F0FBFF03F0B7FF002048
:101E80007049086000BF00BF091F086000BF00F074
:101E900045FA09F00DF908F0DDFE4FF480616A485B
:101EA00001F04FF969A16B48FEF7A9FA01206A49D0
:101EB000C88300206749443981F87800492081F8B7
:101EC0007900002065490870654908706549087007
:101ED000654908706549087065490870654908706A
:101EE000654908706549087065490880654908704A
:101EF000654908606549086000220121644801F0D5
:101F0000CBFB00224FF48051624801F0C5FB002258
:101F10004FF400715F4801F0BFFB00224FF40061F5
:101F20005C4801F0B9FB00224FF48061594801F090
:101F3000B3FB00224FF48071574801F0ADFB4FF422
:101F40000051544801F0DFFB4FF48041514801F04B
:101F5000DAFB00F0E3F9012002F00AFB4F490860C8
:101F60006B46082264214E4802F0D6F84D490860BD
:101F70006B46DC221E214C4802F0CEF84B4908602B
:101F8000072002F0F5FA4A4908606B464FF40072E8
:101F90000721484802F0C0F8474908602021474817
:101FA00002F074F9464908602021464802F06EF9B3
:101FB000454908602021454802F068F94449086015
:101FC000C821444802F062F943490860642143484B
:101FD00002F05CF942490860012002F0C9FA414967
:101FE0000860FFF759FE01F053FD4FF4FA7002F05C
:101FF00029FF03F0EDF93CA1012007F0B5FE002315
:102000001A4640F22311012007F0AEFD39A101204C
:1020100007F0AAFE01F03CFD002400BF601CC4B222
:1020200001F036FDFA2002F00DFF01F031FDFA203B
:1020300002F008FF00F0E4FCF0E7000018ED00E01B
:1020400000E400E040040140001402405262743990
:10205000393939006079002074780020140000209C
:102060001500002016000020170000201800002096
:10207000190000201A0000201B0000201C00002076
:102080002400002026000020280000202C00002032
:10209000000C02400010024000000240000000203E
:1020A0009C01002004000020BC0400200800002047
:1020B0000C000020841E0020100000201C3A00208C
:1020C000300000209C3A0020600000209C39002055
:1020D0003400002074390020C80000201C3B002080
:1020E000500000202000002055434F53B0E6B1BE01
:1020F000BAC53A000D0A000070B505460E462F4AD3
:102100003146284600F01EF920B92DA1012007F024
:102110002BFE70BD2948D0F86207032807DA2DA1ED
:10212000012007F021FE284607F0ACFFF1E707F099
:1021300019FB03222C492148143007F06CFC04469B
:10214000032C04D029A1012007F00EFEE1E7264868
:10215000D0ED000AB2EE041AB6EE000A00EE810AD3
:10216000BDEEC00A10EE100A81B2254841831E4818
:10217000D0ED010AB2EE041AB6EE000A00EE810AB2
:10218000BDEEC00A10EE100A81B21D48C182164889
:10219000D0ED020AB2EE041AB6EE000A00EE810A91
:1021A000BDEEC00A10EE100A81B21548018307F097
:1021B000EBFA284607F066FF00BFAAE7E43F0020DD
:1021C00042617443464720436D64204572720D0A94
:1021D000000000004261744346472056414C2045B0
:1021E00072720D0A00000000D83F00204261744363
:1021F0004647204572722056616C0D0A00000000AF
:102200006247002010B500F08BFB3E48407B002861
:1022100054D03C48C088401C3A49C8800846C08811
:10222000F02808DC3848C078E0BB0022022137489B
:1022300001F041FA36E03348C088FA2805DC012273
:102240000221324801F037FA2CE02F48808800EE56
:10225000100AB8EE400AF3EE050A20EE200AF0EE6E
:10226000040A20EE200ADFED2A0A80EE201AB2EEE0
:10227000040A21EE000ABCEEC00A10EE100A214941
:102280004881084640892349898A884207DD002021
:102290001C494873012202211C4801F00CFA00205D
:1022A0001849C8801848807820BB00201549487319
:1022B00001220221154801F0FEF91BE01248808836
:1022C00000EE100AB8EE400AF3EE050A20EE200AEE
:1022D000F0EE040A20EE200ADFED0D0A80EE201A4F
:1022E000B2EE040A21EE000ABCEEC00A10EE100A9B
:1022F00004494881084890F80404401C064981F8C4
:10230000040410BD0B7900201C790020000C024051
:10231000000080454C780020B03B002010B5012122
:10232000064801F0E8F9002401E0601CC4B2462C24
:10233000FBDB0121014801F0E8F910BD0008024073
:1023400000BFFEE72DE9FF4781460E461446D4F84C
:102350006207022803DA002004B0BDE8F087D4F851
:102360006217491EC1EB8111081929A107F010F964
:1023700008B10020F0E7D4F86217491EC1EB8111C3
:10238000214401F1140007F057F985B2D4F862072F
:10239000401EC0EB8010204490F83C00411EF01C11
:1023A00000F0C8FF0746D4F86207401EC0EB80105B
:1023B000204490F83C10304600F0BCFF8046BD42FF
:1023C00023D0454521D02946684607F070F93946A3
:1023D00002A807F06CF90FA1484607F0C5FC0123DD
:1023E00000222946484607F0BFFB0EA1484607F0E9
:1023F000BBFC012300223946484607F0B5FB0CA17F
:10240000484607F0B1FC0020A6E700BF0120A3E783
:10241000435243000D0A435243204572723A72659B
:10242000763D00002043524320747275653D0000E4
:102430000D0A000010B56348B0F84E00401C614919
:10244000A1F84E000846B0F84E000E2802DB00202E
:10245000A1F84E005C48B0F916105A4800F038FB5D
:102460005A48B0F916105748223000F031FB58484E
:10247000B0F90E000D2818DD5248B0F84600401C97
:1024800000B25049A1F846000846B0F946003C2881
:1024900031DB3B20A1F846000846B0F93E000A288F
:1024A00029DA1E20A1F84A0025E04948B0F90E00BB
:1024B00010F10D0F1BDA4348B0F84600401E00B281
:1024C0004049A1F846000846B0F9460010F13C0F1B
:1024D00011DC6FF03A00A1F846000846B0F93E0062
:1024E00010F10A0F07DD1E20A1F84A0003E00020CA
:1024F0003449A1F846003748B0F90C000C2828DD13
:102500003048B0F84400401C00B22E49A1F8440005
:102510000846B0F944003C2853DB3B20A1F84400B6
:102520000846B0F91C0003280EDA0846B0F84C0043
:10253000401CA1F84C000846B0F84C00142840DDBF
:102540001E20A1F848003CE000201E49A1F84C00E4
:1025500037E02048B0F90C0010F10C0F2BDA1948C5
:10256000B0F84400401E00B21649A1F844000846E5
:10257000B0F9440010F13C0F23DC6FF03A00A1F8F1
:1025800044000846B0F91C0010F1030F0EDD0846A8
:10259000B0F84C00401CA1F84C000846B0F84C00C4
:1025A00014280EDD1E20A1F848000AE0002005498D
:1025B000A1F84C0005E000200249A1F84400A1F870
:1025C0004C0010BDBB780020FE770020187800205A
:1025D00074780020E477002010B50346002204E060
:1025E000002403F8014B541CA2B28A42F8DB10BD50
:1025F00070B504460D460021204606F073FE4820C3
:10260000094981F87900082202214FF6FF7008F08D
:1026100015F80648B0F8EA1307F0B4FF492002495C
:1026200081F8790070BD00001C790020B03B0020CB
:102630002DE9F84F81468A4615462846E91705EBED
:10264000D1514912A5EB41218DB24F46022F03D142
:102650002946504607F06AFF6A4600219448006800
:1026600001F0B0FF69469348006801F0A9FD80467B
:102670009DF8000028B18E48006802F01FF8BDE800
:10268000F88F4FF400714046FFF7A6FF2A464146F7
:10269000504600F023F908F1030B8749584607F02C
:1026A0002EF98548D0F86207012874DD8248D0F8F9
:1026B0006207801EC0EB80107F4A81187FA006F061
:1026C00067FF002867D1002432E0012F0CD17A483F
:1026D000D0F86207C01EC0EB801077490844143060
:1026E000005D7849085521E0022F11D1724976A08A
:1026F00006F04EFF60B17048D0F86207C01EC0EB14
:1027000080106D4908441430005D714908550DE092
:10271000032F0BD16848D0F86207C01EC0EB8010B1
:10272000654908441430005D6A490855601CC4B20C
:10273000032CCADB6048D0F86207801EC0EB801013
:102740005D4A104400F11401634806F021FF60B3B4
:102750005948D0F86207012812DD57495AA006F0FF
:1027600017FF68B94146384601F0A4F9414651487F
:10277000006801F049FD4E48006801F09FFF7EE7C8
:1027800041464C48006801F03FFD4948006801F0AF
:1027900095FF74E7FFE741464648006801F034FDC5
:1027A0004348006801F08AFF69E7404600F012FCE8
:1027B0000646AA2E70D0162E6CD2DFE806F00B0E5D
:1027C0001114161B20252A2F33383D42474B5055F4
:1027D000595D616604F0F4F95DE004F0A3FA5AE093
:1027E00004F01CFA57E007F077FD4146384604F044
:1027F00057F850E04146384603F02EFF4BE0414683
:10280000384601F057F946E04146384600F0C8FD29
:1028100041E04146384604F08FFB3CE0384600F08A
:10282000B9FD38E041463846FFF766FC33E04146E3
:10283000384601F05FFB2EE04146384603F0F4F9DC
:1028400029E041463846FFF7D3FE24E0384601F040
:1028500061FB20E04146384603F0A8FD1BE04146FD
:10286000384603F0E9FD16E0404601F015FB12E0A2
:10287000384603F01DFB0EE0384603F00FFB0AE07C
:102880004146384604F0CAFB05E04146384604F0AC
:102890002FFC00E000BF00BF41460648006801F081
:1028A000B3FC0348006801F009FF00BFE7E6000041
:1028B0000C00002010000020E43F0020644E616DF9
:1028C000650000006400002048656C6C6F0000002B
:1028D000680000206C0000206079002070B504467C
:1028E0000D461346A5420CD229462246002005E09B
:1028F00012F8016B01F8016B461CB0B29842F7DB8D
:102900000CE05E1E71193219002005E012F8016911
:1029100001F80169461CB0B29842F7DB70BD704700
:1029200010B529480078052802DB002026490870E8
:1029300026482549097830F8110025490988081AE0
:102940002349088023482049097830F8110022499A
:102950000988081A20490880052007F0F7FA1B4962
:10296000194A127821F81200042007F0EFFA1949E9
:10297000154A127821F8120014481349097830F8E2
:1029800011001349098808441149088011480E496B
:10299000097830F811001049098808440E49088068
:1029A0000B480088052190FBF1F00C4988800A480B
:1029B0000088052190FBF1F00849C88002480078A2
:1029C000401C0149087010BD400000209C3B0020C5
:1029D00042000020A63B0020440000201C7900207B
:1029E00000EBC00202EB00124FF6FF7303EA820213
:1029F000024BDA811A46118270470000E47700200A
:102A000010B52B480078012809D12A49087003F035
:102A1000E1FF642002F016FA0020254908702548DD
:102A2000007801280DD10020234908700120234996
:102A3000087004F011F8FA2002F004FA00201D4991
:102A400008701E480078012806D100201B49087034
:102A50001948007803F09CFD19480078012809D135
:102A60001849087000F000FD642002F0EBF9002026
:102A7000134908701348007801280DD1002012492D
:102A8000087001201149087000F022FDFA2002F0C0
:102A9000D9F900200B4908700C480078012806D1AC
:102AA00000200A4908700848007803F06AFD10BD4C
:102AB000150000201600002017000020180000203C
:102AC000190000201A0000201B0000201C0000201C
:102AD000D0F81E200E4BB3F84E3000EB4303B3F991
:102AE0000030D21AC0F81E20094AB2F84E2000EB7E
:102AF00042021180D0F81E200A44C0F81E20D0F8EF
:102B00001E200E2392FBF3F212B282837047000064
:102B1000BB78002010B51C484079401C1A49487108
:102B200008464079052801DB00204871002007F0A5
:102B30000DFAC0F3471014494979134A5054002044
:102B40001146A1F80700114908800FE00E48B0F8BF
:102B500007000D490D4A1288895C08440A49A1F80A
:102B600007000A480088401C084908800748008878
:102B70000528EBDB0448B0F80700801C052190FB1A
:102B8000F1F00149887110BD9E7900209801002064
:102B900010B54448B0F90C000A280EDD4248B0F9DF
:102BA000160010F10F0F03DA00203E49C8812EE015
:102BB0003C4880893B49C88129E03A48B0F90C007B
:102BC00010F10A0F0DDA3848B0F916000F2803DDAE
:102BD00000203449C8811AE0324880893149C881CF
:102BE00015E03148B0F916000F2803DD00202D490B
:102BF000C8810CE02C48B0F9160010F10F0F03DA71
:102C000000202849C88102E000202649C8812748C1
:102C1000B0F94A0000280ADD2448B0F84A00401EF6
:102C200000B22249A1F84A0000201E49C8811D486F
:102C3000B0F90E0005280FDD4FF480511C4800F05C
:102C400060FD4FF400611A4800F065FD1549C9891F
:102C500088B203F019FE23E01248B0F90E0010F11B
:102C6000050F10DA4FF48051114800F054FD4FF475
:102C700000610F4800F045FD0A49C989494288B200
:102C800003F002FE0CE04FF40061094800F039FD4A
:102C90004FF48051064800F034FD002003F0F4FDAD
:102CA00010BD00007478002018780020BB78002048
:102CB0000000024010B510212F4800F0C7FC20B1E1
:102CC00020212D4800F0C2FC08B9012000E00020BE
:102CD0002A4981F82A00084690F82A0081F82B003A
:102CE000032007F033F940F24E61081A0D2190FBE2
:102CF000F1F000B22249C882022007F027F940F221
:102D00004E61081A6FF0090190FBF1F000B21D4905
:102D1000C8821D480088401C1B490880084600885E
:102D2000322800DA10BD00201749088017480088B3
:102D3000401C16490880084600880A2801DB00204C
:102D4000088013481149098830F811001049888219
:102D5000104800680D4A128821F8120008460B49F5
:102D6000098830F811000A49898A401A00B20849D6
:102D7000C88200BFD6E70000000802407478002037
:102D800018780020FE77002090010020920100209A
:102D9000327800202408004010B5FDF793FA04466D
:102DA00006480078401C054908702046FDF78EFA59
:102DB00000F006F801F068F910BD000039010020AC
:102DC00070B540F6B8351248006804B24FF4804040
:102DD00000F02AF8D0B10F480068201AA84205DD9B
:102DE0000D480068401C0C49086009E0094800686B
:102DF000001BA84204DD08480068401E0649086020
:102E0000044804604FF4804000F008F870BD0000F2
:102E1000240800402C000020280000200149086000
:102E200070470000143C014001460020034A12682C
:102E30000A400AB1012000E000207047143C014024
:102E400001490860704700000C3C024070B5044620
:102E50000A460026092502B909E0012A01D1160215
:102E600005E0022A01D1160201E04FF4407600F09D
:102E70009FF80546092D28D11548006820F44070B8
:102E80001349086008460068304308600846006837
:102E900020F0F80008600846006844F0020108438A
:102EA0000B4908600846006840F48030086000F074
:102EB0007FF805460648006820F0020004490860D3
:102EC0000846006820F0F8000860284670BD000041
:102ED000103C024009201349096801F48031B1F522
:102EE000803F01D101201CE00E49096801F010016A
:102EF00009B1062015E00B49096801F4807109B198
:102F000002200EE00749096801F0EF0109B107202E
:102F100007E00449096801F0020109B1082000E056
:102F2000092070470C3C02400348006840F0004014
:102F30000149086070470000103C024030B502466D
:102F40000C46092500F034F80546092D19D10E4824
:102F5000006820F440700C4908600846006840F49E
:102F6000007008600846006840F0010008601460C6
:102F700000F01EF805460448006820F001000249F0
:102F80000860284630BD0000103C0240054800683B
:102F900000F0004028B1044802490C390860034899
:102FA00008607047103C024023016745AB89EFCDB4
:102FB00008B509200090FFF78DFF009002E0FFF7B1
:102FC00089FF00909DF800000128F8D09DF80000CE
:102FD00008BD000070B50546FF2600240CE0084936
:102FE00051F82400294604F05BF90646552E01D11C
:102FF000204670BD601CC4B2152CF0DDAA20F8E795
:10300000700000207CB505460C4603260094022083
:103010008DF805008DF804606946284600F026F812
:1030200000BF7CBD70B504460D46002229462046EF
:1030300000F014FB70BD70B504460D460022294611
:10304000204600F01AFB70BD70B504460D46012203
:103050002946204600F002FB70BD70B504460D46BF
:1030600001222946204600F008FB70BDF0B50A4653
:1030700000210023002400BF3DE0012505FA01F3F3
:10308000156805EA03049C4234D105684F00032605
:10309000BE40B543056015794E00B540066835431E
:1030A00005601579012D02D01579022D16D185689C
:1030B0004F000326BE40B543856055794E00B540AC
:1030C000866835438560456801268E40B543456076
:1030D000456896798E40B6B235434560C5684F0065
:1030E0000326BE40B543C560D5794E00B540C668DD
:1030F0003543C560491C1029BFD3F0BDF0B500238E
:1031000000244D07ED0E02FA05F3CE1000F1200564
:1031100055F826504E07F70E0F26BE40B543CF1088
:1031200000F1200646F82750CE1000F1200555F892
:10313000265045EA0304CE1000F1200545F826404C
:10314000F0BD41837047018370470000F8B5064623
:103150000C466A4600211C48006801F033FA6946B3
:103160001A48006801F02CF805469DF8000020B1CF
:103170001548006801F0A2FAF8BD4FF40071284626
:10318000FFF72AFA224629463046FFF7A7FB2846D2
:1031900000F0C4FA0E4981F8E00101200D49887061
:1031A00000210C48C171017200200A4981F8030115
:1031B00029460648006801F027F80348006801F036
:1031C0007DFA00BFD8E700000C00002010000020AE
:1031D00092470020DC580020F8B506460C466A46A7
:1031E00000211C48006801F0EDF969461A480068A2
:1031F00000F0E6FF05469DF8000020B11548006884
:1032000001F05CFAF8BD4FF400712846FFF7E4F9CD
:10321000224629463046FFF761FB284600F0B6FB00
:103220000E4981F8E10101200D49887000210C4808
:10323000C171017200200A4981F80301294606483C
:10324000006800F0E1FF0348006801F037FA00BFB2
:10325000D8E700000C00002010000020924700205A
:10326000DC580020F8B506460D466A4600212A487B
:10327000006801F0A7F969462848006800F0A0FF3F
:1032800004469DF8000020B12348006801F016FABA
:10329000F8BD4FF400712046FFF79EF92A462146FB
:1032A0003046FFF71BFB2078BB2808D120791A286D
:1032B00005D16079442802D10120194908701948C4
:1032C000007801280DD1A078617840EA012000B291
:1032D0001549C8802079E17840EA012000B21249FE
:1032E00008811248007801280BD1A078617840EA63
:1032F00001200D4988800846808810B101200C49C2
:10330000087021460548006800F07EFF024800680A
:1033100001F0D4F900BFBBE70C0000201000002032
:103320001700002019000020564700201A00002036
:103330001B00002030B504460D46EAB221464FF688
:10334000FF7000F001F830BD30B50CE0030A4FF615
:10335000FF7404EA002011F8014B5C40E4B2054D13
:1033600035F814406040141EA2F10105EAB2EDD117
:1033700030BD000094C00008054A9078032104E0A5
:10338000034A525C50404A1CD1B20729F8DB70470F
:10339000F45E002010B50446204606F0F7FE10BD8E
:1033A00070B505460E46002442212D4806F00FF95F
:1033B00008B144F001044121294806F008F908B198
:1033C00044F002044A21264806F001F908B144F00D
:1033D00004045021224806F0FAF808B144F0080429
:1033E0004D211F4806F0F3F808B144F010045321B2
:1033F0001B4806F0ECF808B144F0200457211848A7
:1034000006F0E5F808B144F040045821144806F0ED
:10341000DEF808B144F080044321114806F0D7F8E3
:1034200008B144F4807447210D4806F0D0F808B183
:1034300044F400744C210A4806F0C9F810B14FF664
:10344000FF70044300222946204607F0F7F805489C
:10345000B0F8EA230146284605F008FF70BD0000D9
:10346000F83F0020B03B002008B56A46002115480F
:10347000006801F0A7F89DF8000000B108BDAA207F
:1034800011490870052048700B2088700020C87012
:103490000871487188710B20C87155200872092085
:1034A000A1F8EA030020A1F8E803084601780748DC
:1034B00005F09CFA012240F22771044805F0F7F963
:1034C00000BFDBE7F4000020F45E00200050004065
:1034D00008B56A4600211548006801F073F89DF8A8
:1034E000000000B108BDAA201149087005204870ED
:1034F0000D2088700020C8700871487188710D20F7
:10350000C871552008720920A1F8EA030020A1F82B
:10351000E80308460178074805F068FA012240F2FE
:103520002771044805F0C3F900BFDBE7F400002071
:10353000F45E00200050004010B501213F2002F051
:10354000A1FE4FF400513D48FFF77EFD4FF480414E
:103550003A48FFF779FD4FF40051384800F0D3F8AE
:103560004FF48041354800F0CEF801213448FFF790
:103570006BFD0121324800F0BCF802212F48FFF713
:1035800063FD02212D4800F0B4F84FF480712D48FE
:10359000FFF75AFD4FF480712A4800F0AAF84FF463
:1035A00000712648FFF750FD4FF40071234800F0EA
:1035B000A0F84FF480612148FFF746FD4FF4806189
:1035C0001E4800F096F84FF400611C48FFF73CFDE0
:1035D0004FF40061194800F08CF84FF480511748FF
:1035E000FFF732FD4FF48051144800F082F80421B7
:1035F0001248FFF729FD0421104800F07AF8022153
:103600000F48FFF721FD02210D4800F072F84FF43A
:1036100000510D48FFF706FD20210848FFF702FD85
:1036200010210648FFF7FEFC02210748FFF70CFDBA
:103630000221054800F05DF810BD000000100240B6
:10364000000C0240000002400008024002461069DF
:10365000084008B1012070470020FCE77CB5064611
:103660000C461546009402208DF805008DF8045094
:1036700069463046FFF7FAFC7CBD7CB506460C4631
:103680001546009402208DF805008DF80450694617
:103690003046FFF7EBFC7CBD70B505460E46144680
:1036A00024B13146284600F024F803E0314628468C
:1036B00000F029F870BD70B505460E46144624B1D9
:1036C0003146284600F017F803E03146284600F05E
:1036D0001CF870BD70B505460E46144624B131463F
:1036E000284600F00AF803E03146284600F00FF8BB
:1036F00070BD018370470183704701837047018368
:10370000704701837047418370474183704741830D
:1037100070474183704741837047000070B52DEDBD
:10372000088B04462C21204605F051FF04461CB9A5
:103730000020BDEC088B70BD641C2C21204605F0D8
:1037400046FF04460CB90020F3E7641C20792E28BC
:1037500001D00020EDE7002508E0605D392802DC9B
:10376000605D302801DA0020E3E76D1C042DF4DBF6
:103770000C2282492046FFF7B1F80021804880F8EA
:10378000D0112C21204605F022FF04460CB9002060
:10379000CFE7641C20787A4981F8DC01641C20782A
:1037A0002C2801D00020C4E7641C60792E2801D0A9
:1037B0000020BEE7002508E0605D392802DC605D7E
:1037C000302801DA0020B4E76D1C052DF4DB0D2252
:1037D0006A4910392046FFF781F80021684880F8CF
:1037E000C1112C21204605F0F2FE04460CB9002040
:1037F0009FE7641C2078624981F8DD01641C207811
:103800002C2801D0002094E7641C2C21204605F0D0
:10381000DEFE04460CB900208BE7641C2C212046F8
:1038200005F0D5FE04460CB9002082E7641C2C216B
:10383000204605F0CCFE04460CB9002079E7641C54
:103840002078392802DC2078302801DA002070E75F
:1038500006224A4910312046FFF740F80021484827
:1038600080F8DA1100F5EA7005F042FCB0EE408A0B
:10387000F0EE608A51EC180B07F0E8FD4049C1F802
:10388000EA0101F2B71005F033FCB0EE40BAF0EEF9
:1038900060BA9FED3C0B53EC102B51EC1B0B07F067
:1038A000C3FE41EC190B364991F8B411303964224A
:1038B00011FB02F2324991F8B511303901EB810167
:1038C00002EB41022E4991F8B6113039501808F038
:1038D0003FF853EC192B07F0EBFD07F0B7FD284933
:1038E000C1F8E20101F5E37005F002FCB0EE40BA68
:1038F000F0EE60BA9FED230B53EC102B51EC1B0B39
:1039000007F092FE41EC190B1D4991F8C5113039B1
:103910001B4A92F8C421303A02EB820201EB4200CA
:1039200008F016F853EC192B07F0C2FD07F08EFDD6
:103930001349C1F8E601084690F8DC014E280AD088
:103940000846D0F8E60100EE100AB1EE400A10EE8B
:10395000100AC1F8E6010A4890F8DD0145280BD0AD
:103960000748D0F8E20100EE100AB1EE400A10EE6E
:10397000100A0349C1F8E2010120DAE656490020A5
:10398000924700200000000000004E4070B5044641
:103990002C21204605F01BFE04460CB9002070BD0A
:1039A000641C002508E0605D392802DC605D302879
:1039B00001DA0020F3E76D1C062DF4DB6078303867
:1039C0002178303901EB810100EB410606F1080056
:1039D000182190FBF1F201FB12002C49C1F89C0167
:1039E000E0783038A178303901EB810100EB4100FB
:1039F0002649C1F8A001607930382179303901EBCE
:103A0000810100EB41002149C1F8A401002509E032
:103A10002C21204605F0DBFD04460CB90020BEE752
:103A2000641C6D1C082DF3DB002508E0605D39285F
:103A300002DC605D302801DA0020B0E76D1C062D45
:103A4000F4DB607830382178303901EB810100EB0C
:103A500041000E49C1F89801E0783038A17830393A
:103A600001EB810100EB4100401E0849C1F89401BF
:103A7000607930382179303901EB810100EB410068
:103A800064300249C1F89001012088E79247002084
:103A900010B501210548FFF72EFE0A2001F0D2F9EA
:103AA00001210248FFF731FE10BD0000000802406E
:103AB00000BFFEE72DE9F04105460F46022D7DD1FE
:103AC00000205D4981F804045CA15E4805F0DFFF39
:103AD0000446002C16DBC4EB84105A49084490F8C5
:103AE0003E0018280ED2C4EB8411564B194491F8AD
:103AF0003E104A1CC4EB8411194401F114005249D0
:103B0000FEF7ECFE51A14F4805F0C1FF0446002C22
:103B10003ADBC4EB84104B49084490F83E001C2863
:103B200032D2C4EB8411474B194491F83E104A1C21
:103B3000C4EB8411194401F1140043491831FEF714
:103B4000CDFE4148443890F85C0041280CD1002259
:103B50004FF400713E48FFF7BDFD00224FF40061B5
:103B60003B48FFF7B7FD0FE03748443890F85C005A
:103B7000422809D1012251023548FFF7ABFD01224D
:103B8000D1023348FFF7A6FD4FF4166031490860B3
:103B900041F28830486030A12A4805F078FF044699
:103BA000002C16DBC4EB8411264A114401F11400E9
:103BB0000222284905F09AFF064600E03AE0022E6C
:103BC00006DA4FF416602349086041F288304860F5
:103BD00000BF20480068224908601E4840684860CD
:103BE00020A1184805F053FF0446002C17DBC4EB56
:103BF00084101449084490F83E0008280FD2C4EB02
:103C00008411104B194491F83E104A1CC4EB8411E6
:103C1000194401F114000C493531FEF75FFE08220A
:103C200002214FF6FF7006F009FD0348B0F8EA13D1
:103C300006F0A8FCBDE8F081B03B00204C6E616D41
:103C400065000000E43F0020607900204C737400A0
:103C500000100240B83F0020636F64654366670050
:103C600074780020537461746553770021B1028821
:103C700042F48062028004E002884FF6FF331A406B
:103C80000280704770B50246002400250023002002
:103C9000958A138B1B0445EA030626F07F4404EA49
:103CA00001068E4201D1012000E0002070BD21B14B
:103CB000028842F00102028004E002884FF6FE739F
:103CC0001A4002807047000010B504461348844231
:103CD00009D10121480502F0C5FA00214FF4001076
:103CE00002F0C0FA18E00E48844209D1012188058B
:103CF00002F0B8FA00214FF4800002F0B3FA0BE0B2
:103D00000848844208D10121C80502F0ABFA00211D
:103D10004FF4000002F0A6FA10BD0000005400406D
:103D200000580040005C004021B1028842F48072DB
:103D3000028004E002884FF6FF631A400280704759
:103D400021B1028842F40072028004E002884FF63A
:103D5000FF531A40028070470CB502460020002332
:103D60000193009300920B0F019321F07F41019B7F
:103D70001BB1009B1433009303E0090C009B183324
:103D80000093009B1B680B400BB1012000E000205A
:103D90000CBD00002DE9FF4704460D460026B14644
:103DA0000427DFF8CC80A6884FF6C070064068462E
:103DB00002F088FADDF808802E48B8FBF0F01FFA10
:103DC00080F946EA0906A68020884FF6FE71084071
:103DD000208000262849286888420CD8286840009E
:103DE000B8FBF0F087B2042F00DA04273E4309F154
:103DF0000100208427E0E8884BF6FF71884206D155
:103E0000286800EB4000B8FBF0F087B209E02868B2
:103E100000EBC00101EB0010B8FBF0F087B247F4F3
:103E20008047C7F30B0008B947F0010747F400408B
:103E300006434FF4967009FB00F04FF47A7190FB43
:103E4000F1F0401C2084A683208840F001002080EF
:103E500026884FF6F5300640A8886989084306434E
:103E60002680A889298908432081BDE8FF870000B2
:103E700000127A0040420F00A08601000146088A25
:103E8000C0B2704712B141F0010101E001F0FE0142
:103E9000018270470182704770B505460BA103206F
:103EA00005F062FF00240EE0114850F824100320B2
:103EB00005F05AFF0DA1032005F056FF0A2000F07F
:103EC000C1FF601CC4B2152CEEDD70BDB1BED7A41D
:103ED000CBFEBBFAC6F7C8CBCFB5CDB3B5C4B5F7EB
:103EE000CAD4C3FCC1EEC8E7CFC2A3BA0D0A000012
:103EF0007000002070B504460D46022C07D004A1C6
:103F0000022005F031FF2946022005F02DFF70BD8B
:103F100041542B0010B5044602210748FFF7F7FB78
:103F2000022000F08FFF02210348FFF7E6FB03A108
:103F3000204605F019FF10BD000802405265736568
:103F400074204C696E75780000BFFEE77047000072
:103F500070B5002100230F22C4781CB3174C2468CD
:103F600004F4E064C4F5E064C4F30721C1F104047F
:103F7000E3B20A4144789C40E1B284781440214382
:103F80000C07210E0E4C05786155047804F01F05CE
:103F90000124AC4005786D11AD0005F1E025C5F8B0
:103FA000004109E0047804F01F050124AC40054DF0
:103FB0000678761145F8264070BD00000CED00E053
:103FC00000E400E080E100E002490143024A1160A0
:103FD000704700000000FA050CED00E02DE9F0410B
:103FE00005460E46144600271DB904202070BDE882
:103FF000F08116B90C202070F9E71148007810B153
:1040000012202070F3E72878012808D0022807D072
:10401000032802D0042804D100E000BF00BF00BF85
:1040200002E001202070E2E700BFFCF74BF90746F1
:104030006E613846FCF74AF90020207000BFD6E7D1
:104040003901002010B500F017F801F02FFB01F046
:1040500057FB01F077FB01F0F9FA01F0B9FA01F032
:1040600015FC01F03FFC01F0ADFB01F0D3FB01F0CA
:1040700075F800F007F810BD00200149088070476E
:10408000840100207047000010B500241A48007811
:10409000012830D1FCF716F904461848007820B101
:1040A00016480078401E1549087014480078F8B981
:1040B00013480078E0B901F077FC124812490978FA
:1040C00050F82100114908600F480078104909781C
:1040D00088420DD00D480068C06B401C0B49096830
:1040E000C8630C480068401C0A490860FCF70AF9DC
:1040F0002046FCF7EBF810BD4601002039010020F6
:104100003A0100202C6900203C01002054010020CD
:104110003B010020200100202DE9FC5F05460F46F1
:1041200091461E460020009025B962203070002084
:10413000BDE8FC9F05F0030018B16220307000203C
:10414000F6E7022F03D25B2030700020F0E7B9F1D0
:10415000040F03D25C2030700020E9E7FCF7B2F8CE
:10416000009016480468006820B114480068406850
:10417000124908600098FCF7A9F81CB95A20307061
:104180000020D5E7AA46A846781E01904FF0000B04
:1041900005E0C844CAF80080C2460BF1010B019843
:1041A0008345F6D30020CAF80000256065602761CA
:1041B000E760C4F8089030702046B9E7600100203D
:1041C0002DE9F04104460D46002724B960202870EF
:1041D0000020BDE8F081FCF775F80746206960B162
:1041E0006668306860602069401E20613846FCF7D0
:1041F0006DF8002028703046EBE73846FCF766F88B
:104200005D2028700020E4E770B504460D460026C6
:104210000CB9602070BD0DB95F20FBE7FCF752F8C8
:104220000646D4E90310884204D33046FCF74EF822
:104230005E20EFE76068286065602069401C2061AF
:104240003046FCF743F80020E4E770B505460C461D
:1042500000260DB9602070BD0CB96120FBE7FCF7AA
:1042600031F806462868206068686060A868A06029
:10427000E868E060286920613046FCF727F8D4E957
:104280000301401A60610020E5E700002DE9F041DC
:1042900006460F464FF000082048007810B1002075
:1042A000BDE8F081FCF70EF880461D480468006800
:1042B00020B11B4800684068194908604046FCF777
:1042C00005F8FCB1FBF7FEFF804616480568D5B13E
:1042D00000680068134908604046FBF7F7FF6E600E
:1042E00006EB8700A860EE602E61AF820020E882B6
:1042F000022020700020208165600BA060612046B4
:1043000001F058F908E0064800686060044804605D
:104310004046FBF7DBFF00242046C1E739010020BF
:1043200024010020640100203F0000002DE9F04737
:104330000646884615464FF0000926B90420287025
:104340000020BDE8F0873078022803D001202870D3
:104350000020F6E73D48007818B1022028700020C0
:10436000EFE73B48007818B10D2028700020E8E7FF
:10437000FBF7A8FF81467468E08A98B12169081D9F
:1043800020610F68E08A401EE082A16820698842AF
:1043900001D1606820614846FBF798FF0020287033
:1043A0003846CEE72B48006890F8340040F004000F
:1043B0002849096881F8340000202649096881F8F5
:1043C000350024480068C0F83080304601F0B4F869
:1043D0004846FBF77BFF01F0ADFAFBF773FF814620
:1043E0001C48006890F8350020B101280DD0022843
:1043F0000AD105E017480068476A002028700DE0E0
:1044000000270E20287009E000BF314611480068DF
:1044100001F060F800270A20287000BF00BF0020CC
:104420000C49096881F834000A49096881F83500A7
:1044300008490968C86107490968086205490968A7
:1044400048624846FBF742FF38467AE739010020C8
:104450003A0100204C0100202DE9F04105460E46AE
:10446000002715B90420BDE8F0812878022801D082
:104470000120F8E7FBF726FF0746A87A60B1002382
:1044800004223146284600F0DDFF3846FBF71EFFC8
:1044900001F050FA0020E6E76C68E08AA18A8842C1
:1044A00004DB3846FBF712FF1E20DCE7E168081D3D
:1044B000E0600E60E08A401CE082D4E9021088428D
:1044C00001D16068E0603846FBF700FF0020CAE7D2
:1044D00010B500240B480078012811D1FBF7F2FE3B
:1044E00004460948007840B908480078FF2804D2FB
:1044F00006480078401C054908702046FBF7E6FE98
:1045000010BD000046010020390100203A010020C2
:1045100010B5002413480078012821D1FBF7D2FE02
:10452000044611480078C0B10F480078401E0E497B
:1045300008700846007860B90C48007828B9204611
:10454000FBF7C4FE01F0F6F90AE02046FBF7BEFED9
:1045500006E02046FBF7BAFE02E02046FBF7B6FE77
:1045600010BD0000460100203A0100203901002062
:1045700070B5054600261048007808B1002070BDCF
:10458000FBF7A0FE06460D480468006820B10B4802
:1045900000684068094908603046FBF797FE4CB157
:1045A0000320207025810020606005A06061204606
:1045B00001F000F82046E2E7390100202401002044
:1045C0003F0000002DE9F04105460E461446002745
:1045D0001DB904202070BDE8F0812878032802D09E
:1045E00001202070F7E73248007810B102202070D7
:1045F000F1E73048007810B10D202070EBE7FBF7B1
:1046000061FE0746288940B12889401E2881384626
:10461000FBF75CFE00202070DDE72748006890F87B
:10462000340040F001002449096881F8340000207A
:104630002149096881F835001F480068066328464B
:1046400000F07AFF3846FBF741FE01F073F9FBF703
:1046500039FE07461848006890F8350020B1012857
:1046600009D0022806D102E0002020700BE00E20C5
:10467000207008E000BF29460F48006800F02AFFBC
:104680000A20207000BF00BF00200B49096881F894
:1046900034000949096881F8350007490968C8618B
:1046A0000549096808623846FBF710FE00BF92E72B
:1046B000390100203A0100204C01002070B5044669
:1046C00000250CB9042070BD2078032801D00120FA
:1046D000F9E7FBF7F7FD0546A07A60B10023012258
:1046E0001946204600F0AEFE2846FBF7EFFD01F02C
:1046F00021F90020E7E720894FF6FF71884207D2B1
:104700002089401C20812846FBF7E0FD0020DAE7E5
:104710002846FBF7DBFD3320D5E72DE9F0470446BB
:104720000D464FF0000914B90420BDE8F0870DB91B
:104730000920FAE72078032801D00120F5E7FBF7EC
:10474000C1FD8146A07AA87204F10B0705F10208A9
:10475000002605E017F8010B08F8010B701CC6B223
:10476000082EF7D3208928804846FBF7AFFD0020AC
:10477000DBE7000010B50B48007890B901F014F9A0
:10478000094800780949087009480749097850F82C
:104790002100084908600846006807490860FBF7DF
:1047A00098FD10BD460100203C0100203B01002087
:1047B0002C690020540100204C01002010B5002479
:1047C000022000F03FFBFBF77DFD044600200B4973
:1047D00008602046FBF77AFD322000F033FBFBF740
:1047E00071FD044605480068054908600120054937
:1047F00008702046FBF76AFD10BD0000480100204C
:104800003001002038010020704700002DE9F04FF2
:1048100085B081468A4693461C46DDE90F78129D95
:10482000002003903F2C03D92A2005B0BDE8F08F6B
:10483000FBF748FD03902248007820B10398FBF76E
:1048400045FD3C20F1E71F4850F8240088BB0120BB
:104850001C4941F824000398FBF738FD2A464146DD
:10486000384601F0D3F92B465A465146484600F0E7
:10487000B1F904901198CDE9008002953A4620469E
:104880000E9B049901F0A6F8064636B90E4800784A
:1048900001280CD101F04EF809E0FBF713FD03905D
:1048A0000020084941F824000398FBF70FFD30462B
:1048B000BBE7FFE70398FBF709FD2820B5E70000F9
:1048C000390100202C6900204601002070470000BB
:1048D0002DE9F041054600274D48007810B14020F1
:1048E000BDE8F0813F2D01D13E20F9E73F2D03D3F4
:1048F000FF2D01D02A20F3E7FBF7E4FC0746FF2D4C
:1049000003D14448006890F83650434850F8254099
:1049100024B93846FBF7DAFC4320E1E7012C04D147
:104920003846FBF7D3FC3D20DAE714F8380F3B4953
:10493000085C617888432178384A505414F8380963
:104940001146085C30B994F83A103548007888432D
:1049500033490870E06918B12046E16900F0BAFDFA
:10496000206A18B12046216A00F0C9FDA66A16B176
:10497000304600F059FE0020206384F8340084F8AB
:10498000350028480078FF2804D226480078401CCB
:10499000244908703846FBF799FC00F051FDFBF7FD
:1049A00091FC07461F48007820B11E480078401E41
:1049B0001C490870204600F041F81B480078401E52
:1049C000194908700020144941F82500A06930B940
:1049D00000206169886115496069086005E0D4E9D3
:1049E00005014861D4E905108861114800686061DB
:1049F0000F4804600FA020653846FBF767FC0E489F
:104A00000078012801D100F095FF002068E7000040
:104A1000390100204C0100202C6900203E010020BB
:104A20003D0100203A0100204701002058010020EC
:104A3000500100203F0000004601002070477047F1
:104A40002DE9F04105460F4614464FF000083F2D72
:104A500005D9FF2D03D02A202070BDE8F08117B9B9
:104A60000C202070F9E71448007810B11220207053
:104A7000F3E7FBF727FC8046FF2D03D10F480068C2
:104A800090F836500E4850F825602EB94046FBF796
:104A90001DFC43202070E0E7012E05D14046FBF7C6
:104AA00015FC43202070D8E737654046FBF70EFC25
:104AB0000020207000BFD0E7390100204C01002009
:104AC0002C6900202DE9F04104460E4600273F2CBA
:104AD00004D9FF2C02D02A20BDE8F0810EB90920AC
:104AE000FAE7FBF7EFFB0746FF2C03D10E480068FF
:104AF00090F836400D4850F8245025B93846FBF759
:104B0000E5FB2920E8E7012D04D13846FBF7DEFB61
:104B10004320E1E758222946304600F0ACFE3846F3
:104B2000FBF7D4FB0020D7E74C0100202C690020C4
:104B3000704770472DE9F04706460C464FF0000AD3
:104B40003F2E04D9FF2E02D02A20BDE8F0870CB9F1
:104B50000920FAE7002020606060FBF7B3FB824683
:104B6000FF2E03D11948006890F83660184850F8B5
:104B7000265025B95046FBF7A9FB4320E5E7012D58
:104B800004D15046FBF7A2FB4320DEE7287C00F06F
:104B9000010020B95046FBF799FB4520D5E70027D7
:104BA000D5F80C90D5F808805046FBF78FFB00E055
:104BB0007F1C58F8041B0029FAD0B8002060A9EB2C
:104BC0000700800060600020BFE700004C0100206B
:104BD0002C69002070B5044610460026051F2846A3
:104BE0002E604FF48056051F28462E601526051F9F
:104BF00028462E601426051F28462E601326051F02
:104C000028462E601226051F28462E601126051FF5
:104C100028462E601026051F28462E600926051FEF
:104C200028462E600826051F28462E600726051FE9
:104C300028462E600626051F28462E600526051FDD
:104C400028462E600426051F28462E600326051FD1
:104C500028462E600226051F28462E600126051FC5
:104C600028462E600026051F28462E604FF08075CE
:104C70000560051F28462C60414E051F28462E6002
:104C80004FF01236051F28462E604FF00336051FE1
:104C900028462E604FF00236051F28462E607610FB
:104CA000051F28462E60051F284629603126051F4E
:104CB00028462E603026051F28462E602926051F0F
:104CC00028462E602826051F28462E602726051F09
:104CD00028462E602626051F28462E602526051FFD
:104CE00028462E602426051F28462E602326051FF1
:104CF00028462E602226051F28462E602126051FE5
:104D000028462E602026051F28462E601926051FDE
:104D100028462E601826051F28462E601726051FD8
:104D200028462E601626051F28462E604FF01136A5
:104D3000051F28462E604FF01036051F28462E60AE
:104D40004FF00936051F28462E604FF00836051F24
:104D500028462E604FF00736051F28462E604FF07C
:104D60000636051F28462E604FF00536051F2846DB
:104D70002E604FF00436051F28462E6070BD0000DF
:104D8000315B00082DE9F04105464FF000083F2D4A
:104D900002D14720BDE8F0813F2D03D3FF2D01D084
:104DA0002A20F7E7FBF78EFA8046FF2D05D1204831
:104DB000006890F83650012608E01D48006890F819
:104DC0003600A84201D1012600E00026194850F81B
:104DD000254024B94046FBF779FA4820DAE7012C50
:104DE00004D14046FBF772FA4320D3E794F83870B9
:104DF0001148C05D94F8391088430F49C8550846DA
:104E0000C05D30B994F83A100C48007888430B49DB
:104E1000087094F8340040F0080084F834004046EC
:104E2000FBF754FA012E01D100F084FD0020B1E718
:104E30004C0100202C6900203E0100203D01002093
:104E40007047000070B5054600261748007800B18D
:104E500070BD1648007800B1FAE71DB3FBF732FACF
:104E600006461348006890F838401248005D104923
:104E7000096891F8391088430E4908550846005DC5
:104E800040B90B48006890F83A100B480078884306
:104E9000094908700648006805633046FBF716FAB2
:104EA00000F048FD00BFD3E7390100203A0100209F
:104EB0004C0100203E0100203D01002070B500257E
:104EC000FBF700FA0546034804682846FBF7FEF99D
:104ED000204670BD6801002070B5002600F072F811
:104EE000FBF7F0F9064631480068401C2F4908607E
:104EF0003046FBF7EBF92E480078012853D12D48B6
:104F0000007820B1012804D0022809D103E001254E
:104F10000BE0002509E0012501202649087004E086
:104F2000012500202349087000BF00BF05B970BDEE
:104F30002148046833E0FBF7C5F90646206B50B3FF
:104F4000206B401E2063206B28BB94F8340000F0D7
:104F5000370040B114F8340F00F0C8002070012071
:104F60006070343C02E0002084F8350094F834008E
:104F700000F0080078B93834A0781049097808435F
:104F80000E49087020780E49085C6178084314F8CF
:104F900038190B4A505464693046FBF797F994F876
:104FA00036003F28C7D100BFC1E7000068010020DC
:104FB000460100205C010020580100203D01002036
:104FC0003E01002010B506480088401C04490880B6
:104FD0000846008818B10020088000F04DF810BD88
:104FE000840100202DE9F05F06460F469046994661
:104FF000DDE90AAB0C9DB8F1010F09D0B8F1020F41
:105000000CD127B9832028700020BDE8F09F09E06B
:105010001EB9822028700020F7E703E08420287062
:105020000020F2E700BF1348007818B18B202870E9
:105030000020EAE7FFF74CFA00F070F804462CB9BC
:10504000FFF766FA862028700020DEE7012084F84A
:105050002500A661E76184F82480C4F80490C4F8B0
:1050600008A0C4F820B0FFF753FA002028702046AB
:10507000CBE700003901002010B503480068FFF7B6
:105080001DFB0446204610BD7801002070B5054682
:105090000C461DB98A202070002070BD2878642835
:1050A00003D0892020700020F7E71B48007818B152
:1050B0008B2020700020F0E7FFF70AFA95F8250012
:1050C000E8B1012810D002280FD003281DD12846AE
:1050D00000F05CF90021284600F0E2F8FFF718FA2A
:1050E000002020700120D8E700BF0021284600F0F2
:1050F000D7F8FFF70DFA002020700120CDE7FFF769
:1051000007FA872020700020C7E7FFF701FA8D20FB
:1051100020700020C1E70000390100200C48006821
:1051200008B9002070470A480168094AC868106039
:105130000020C860086107480088401C054A1080AC
:1051400005480088401E044A10800846EAE700002F
:105150007C0100206E0100206C010020F8B54FF4A6
:105160002071284800F07EFB4021274800F07AFBA0
:10517000002514E0681C86B205EB8500214901EB8F
:10518000C00406EB860001EBC007642020700020FD
:1051900084F82500E7601DA02062681C85B20F2DF1
:1051A000E8D305EB8500174901EBC00464202070AB
:1051B000002084F82500E06014A02062002014493B
:1051C0000860144908801020134908800D481349CD
:1051D00008600120FFF7CCF9114908600020FFF7B3
:1051E000C7F9104908606A460FA10D480068FEF72C
:1051F000F5FE6A4611A10B480068FEF7EFFE00F0CD
:1052000027F8F8BD24730020A47700203F00000099
:10521000700100206E0100206C0100207C01002044
:10522000740100207801002075432F4F532D494908
:1052300020546D724C6F636B0000000075432F4F5C
:10524000532D494920546D725369676E616C00009B
:1052500000B587B00320002180220A4BCDE901323E
:10526000CDE903104FF6FD703D23074A0090074833
:10527000FFF7CCFA06AA06A13D20FFF7E1FB07B035
:1052800000BD0000A4750020A07700200D53000889
:1052900075432F4F532D494920546D720000000073
:1052A00070B50B46032580F82550012B05D1154E0E
:1052B000C5693668354445610CE085692DB9114EE4
:1052C000C56936683544456104E00E4E8569366827
:1052D00035444561057D05F007040B4D05EBC40120
:1052E0000D682DB908600025C56001258D8006E098
:1052F0000A680860C26010618D886D1C8D80002571
:10530000056170BD70010020A477002008B500BFC2
:1053100000BF6A4600211A480068FFF753F9FFF7FB
:10532000D7F818480068401C1649086008460078FD
:1053300000F00708144800EBC8073C681AE0E6686C
:10534000104960690968884213D1204600F01EF8B0
:1053500094F82400022804D101212046FFF7A0FF81
:1053600002E0022084F82500656815B12046A16896
:10537000A8473446002CE2D1FFF7CAF8C9E700007D
:105380007801002070010020A477002030B5057D51
:1053900005F007040D4D05EBC4031D68854205D1DA
:1053A000C168196039B100250D6104E00169C26866
:1053B000CA6002B11161012580F825500025C56041
:1053C00005619D886D1E9D8030BD0000A477002082
:1053D00040F223107047000030B5164800684FF4C3
:1053E000FA72B0FBF2F1481EB0F1807F01D30120C8
:1053F0001BE0481E4FF0E022506150170F2200289A
:1054000007DA13071D0E0C4B00F00F04241F1D5567
:1054100003E013071C0E094B1C5400BF00204FF083
:10542000E022906107201061002008B100BFFEE774
:1054300030BD00000C01002018ED00E000E400E0A9
:10544000704700002DE9F04F05460F4690469946FB
:10545000A87A1C490E5C05F10B00805D11F800B0C4
:105460000BEBC60000F0FF0A174850F82A40002056
:105470002434E0602760207C20EA0800207484F84F
:105480001190207C243C00F0080068B994F83A00A0
:105490000E49097808430D4908700D48805D94F85D
:1054A000391008430A4988552946204600F012F869
:1054B000206A20B12046216A00F021F8E5615046BB
:1054C000BDE8F08F4ABF00082C6900203D01002094
:1054D0003E01002010B590F8382001F10B039B5CD1
:1054E00090F83940A34301F10B04A35423469B5C7D
:1054F00023B98B7A90F83A40A3438B7210BDF0B574
:10550000024612F8384F95785678383A0B461868A4
:105510000FE000F10B073F5DB74300F10B0C0CF8F7
:10552000047067463F5D17B9877AAF4387721B1DCA
:1055300018680028EDD1F0BD10B51B4A1268D06183
:10554000194A126892F8383000F10B02D25C164BFF
:105550001B6893F839301A43134B1B6893F8384093
:1055600000F10B031A55827A0F4B1B6893F83A30FF
:105570001A4382720C4A126892F838100B4A525C35
:10558000094B1B6893F839309A43084B5A541A4612
:10559000525C42B9044A126892F83A30044A1278CE
:1055A0009A43034B1A7010BD4C0100203E010020AD
:1055B0003D010020014600228A72002005E0002300
:1055C00001F10B021354421CD0B20828F7D37047E4
:1055D0002DE9F0415021114800F044F900250DE07B
:1055E000681C86B20D4800EB051400EB061700207E
:1055F000207067600AA0E060681C85B2042DEFD3BC
:10560000064800EB051400202070606004A0E060F4
:10561000024804490860BDE8F0810000DC64002015
:105620003F0000002801002030B501464A680868A4
:105630002AB9CC68606028B10025456002E010609E
:1056400000B142608B6800259D6230BD70B54FF49B
:10565000F071134800F006F9002411E0601C85B2D7
:1056600004EB44000E4901EBC00305EB450001EBE0
:10567000C006002018705E600AA05861601C84B2E9
:10568000132CEBD304EB4400054901EBC0030020CD
:105690001870586003A0586108460349086070BD3F
:1056A000FC6200203F0000002401002000200A4985
:1056B00008600A4908700A4908700A4908700A49CE
:1056C00008700A4908600A4908600A4908600A49DE
:1056D00008600A49087070476801002039010020FD
:1056E0003A0100204701002046010020200100204F
:1056F0004801002034010020300100203801002042
:1057000000210A4A1170002004E00021084A1154C7
:10571000411CC8B20828F8D30021064A1170064A75
:105720001170064A1160064A116070473D01002061
:105730003E0100203B0100203C01002054010020DC
:105740004C01002070B54FF4F261194800F08AF85E
:105750004FF48071174800F085F8002413E0601CB6
:10576000C5B204EB440000EBC400114901EBC003D7
:1057700005EB450000EBC50001EBC0065E610EA025
:105780001865601CC4B2152CE9D304EB440000EB8F
:10579000C400074901EBC0030020586106A018654A
:1057A00000200649086002480549086070BD0000F5
:1057B0002C6A00202C6900203F00000058010020C6
:1057C0005001002000B587B00320002180220A4B41
:1057D000CDE90132CDE903104FF6FF703F23074AB0
:1057E00000900748FFF712F806AA06A13F20FFF72E
:1057F00027F907B000BD00002C67002028690020B1
:10580000095B000875432F4F532D49492049646CAB
:105810006500000000B587B00320002180220A4BFC
:10582000CDE90132CDE903104FF6FE703E23074A61
:1058300000900748FEF7EAFF06AA06A13E20FFF700
:10584000FFF807B000BD00002C650020286700208D
:10585000495B000875432F4F532D4949205374610C
:105860007400000004E0002200F8012B4A1E91B2EF
:105870000029F8D1704705E011F8013B00F8013B21
:10588000531E9AB2002AF7D17047000070B57821F4
:105890001148FFF7E7FF00240EE004EB44000E4937
:1058A00001EBC005601C00EB400001EBC00068602C
:1058B0000AA06861601C84B2042CEED304EB44009F
:1058C000054901EBC0050020686004A06861084636
:1058D0000349086070BD0000BC7100203F0000005B
:1058E000600100202DE9F041F0211048FFF7BAFFD8
:1058F00000240DE0601C86B204EB44000B4901EB70
:10590000C00506EB460001EBC0072F60601C84B2A7
:10591000092CEFD304EB4400044901EBC00500203F
:105920002860084602490860BDE8F0813472002012
:105930006401002010B50024FAF7C4FC04461348A3
:105940000078F8B912480078E0B900F02DF8114855
:105950001149097850F82100104908600E48007874
:105960000F49097888420DD00C480068C06B401C74
:105970000A490968C8630B480068401C0949086067
:10598000FAF7B9FC2046FAF7A1FC10BD3901002056
:105990003A0100202C6900203C0100205401002025
:1059A0003B010020200100200649074A1278885C4C
:1059B0000649095C034A515C01EBC001044A1170BD
:1059C000704700004ABF00083D0100203E01002052
:1059D0003C0100202DE9F84F05460F4690469946B8
:1059E000DDE90AAB00200090FAF76CFC00903F481C
:1059F0000468002C75D01C3454F8080C3B4908602E
:105A00000098FAF763FC44F81C7CA5760020207609
:105A10006076606144F818BC44F810AC44F8148C0B
:105A20000C9824F80C0C24F80A9C0020E077E8106D
:105A3000207705F00700E076217F01208840A077DD
:105A4000E17E012088406077002020606060E06097
:105A5000A0602062A0626062E062206324A06063B4
:105A60001C3C002606E0002104F1540040F82610FA
:105A7000701CC6B2002EF6D02046FEF7C5FE2046AA
:105A8000FEF724FFFAF71EFC00901A4840F8254064
:105A90001948006860610020A0611748006810B1D3
:105AA000154800688461144804603834A0781349AC
:105AB000097808431149087020781149085C617819
:105AC000084314F838190E4A50540E480078401C08
:105AD0000C4908700098FAF7F9FB0020BDE8F88F30
